{
  "contractName": "Transfer",
  "abi": [
    {
      "inputs": [],
      "stateMutability": "nonpayable",
      "type": "constructor"
    },
    {
      "inputs": [],
      "name": "owner",
      "outputs": [
        {
          "internalType": "address payable",
          "name": "",
          "type": "address"
        }
      ],
      "stateMutability": "view",
      "type": "function",
      "constant": true
    },
    {
      "inputs": [],
      "name": "sender",
      "outputs": [
        {
          "internalType": "address payable",
          "name": "",
          "type": "address"
        }
      ],
      "stateMutability": "view",
      "type": "function",
      "constant": true
    },
    {
      "stateMutability": "payable",
      "type": "receive",
      "payable": true
    },
    {
      "inputs": [],
      "name": "transferToOwner",
      "outputs": [],
      "stateMutability": "payable",
      "type": "function",
      "payable": true
    }
  ],
  "bytecode": "0x608060405234801561001057600080fd5b50306000806101000a81548173ffffffffffffffffffffffffffffffffffffffff021916908373ffffffffffffffffffffffffffffffffffffffff16021790555033600160006101000a81548173ffffffffffffffffffffffffffffffffffffffff021916908373ffffffffffffffffffffffffffffffffffffffff16021790555061029a806100a16000396000f3fe6080604052600436106100385760003560e01c80632d90ae941461004457806367e404ce1461004e5780638da5cb5b146100795761003f565b3661003f57005b600080fd5b61004c6100a4565b005b34801561005a57600080fd5b50610063610141565b60405161007091906101cc565b60405180910390f35b34801561008557600080fd5b5061008e610167565b60405161009b91906101cc565b60405180910390f35b60008060009054906101000a900473ffffffffffffffffffffffffffffffffffffffff1673ffffffffffffffffffffffffffffffffffffffff166108fc349081150290604051600060405180830381858888f1935050505090508061013e576040517f08c379a000000000000000000000000000000000000000000000000000000000815260040161013590610244565b60405180910390fd5b50565b600160009054906101000a900473ffffffffffffffffffffffffffffffffffffffff1681565b60008054906101000a900473ffffffffffffffffffffffffffffffffffffffff1681565b600073ffffffffffffffffffffffffffffffffffffffff82169050919050565b60006101b68261018b565b9050919050565b6101c6816101ab565b82525050565b60006020820190506101e160008301846101bd565b92915050565b600082825260208201905092915050565b7f4661696c656420746f2073656e64204574686572000000000000000000000000600082015250565b600061022e6014836101e7565b9150610239826101f8565b602082019050919050565b6000602082019050818103600083015261025d81610221565b905091905056fea26469706673582212205b647a05904aa3feaf20e0b8bcadb2e21319380af87582ac139e8b61711f77c764736f6c63430008110033",
  "immutableReferences": {},
  "source": "// SPDX-License-Identifier: MIT\n// compiler version must be greater than or equal to 0.8.13 and less than 0.9.0\npragma solidity >=0.8.0 <0.9.0;\ncontract Transfer {\n    address payable public owner;\n    address payable public sender;\n\n    receive() external payable {}\n\n    constructor() {\n        owner = payable(address(this));\n        sender = payable(msg.sender);\n    }\n\n    function transferToOwner() external payable {\n        bool sent = owner.send(msg.value);\n        require(sent, \"Failed to send Ether\");\n    }\n}",
  "sourcePath": "/Users/phantola/Desktop/Projects/SC-PlayGround/contracts/Transfer.sol",
  "compiler": {
    "name": "solc",
    "version": "0.8.17+commit.8df45f5f.Emscripten.clang"
  },
  "schemaVersion": "3.4.10",
  "updatedAt": "2022-11-20T12:21:08.723Z",
  "networkType": "ethereum",
  "devdoc": {
    "kind": "dev",
    "methods": {},
    "version": 1
  },
  "userdoc": {
    "kind": "user",
    "methods": {},
    "version": 1
  }
}